{
  "contractName": "Campaign",
  "abi": [
    {
      "constant": true,
      "inputs": [
        {
          "name": "",
          "type": "address"
        }
      ],
      "name": "contributors",
      "outputs": [
        {
          "name": "",
          "type": "bool"
        }
      ],
      "payable": false,
      "stateMutability": "view",
      "type": "function"
    },
    {
      "constant": true,
      "inputs": [],
      "name": "manager",
      "outputs": [
        {
          "name": "",
          "type": "address"
        }
      ],
      "payable": false,
      "stateMutability": "view",
      "type": "function"
    },
    {
      "constant": true,
      "inputs": [],
      "name": "minimumContribution",
      "outputs": [
        {
          "name": "",
          "type": "uint256"
        }
      ],
      "payable": false,
      "stateMutability": "view",
      "type": "function"
    },
    {
      "inputs": [
        {
          "name": "minimum",
          "type": "uint256"
        },
        {
          "name": "creator",
          "type": "address"
        }
      ],
      "payable": false,
      "stateMutability": "nonpayable",
      "type": "constructor"
    },
    {
      "constant": false,
      "inputs": [],
      "name": "contribute",
      "outputs": [],
      "payable": true,
      "stateMutability": "payable",
      "type": "function"
    },
    {
      "constant": false,
      "inputs": [
        {
          "name": "_projectCategory",
          "type": "string"
        },
        {
          "name": "_projectDescription",
          "type": "string"
        },
        {
          "name": "_projectTitle",
          "type": "string"
        },
        {
          "name": "_fundingGoal",
          "type": "uint256"
        },
        {
          "name": "_dateOfPosting",
          "type": "uint256"
        },
        {
          "name": "_dateOfClosing",
          "type": "uint256"
        },
        {
          "name": "_value",
          "type": "uint256"
        },
        {
          "name": "_recipient",
          "type": "address"
        }
      ],
      "name": "createProjectRequest",
      "outputs": [],
      "payable": false,
      "stateMutability": "nonpayable",
      "type": "function"
    },
    {
      "constant": false,
      "inputs": [
        {
          "name": "index",
          "type": "uint256"
        }
      ],
      "name": "approveRequest",
      "outputs": [],
      "payable": false,
      "stateMutability": "nonpayable",
      "type": "function"
    },
    {
      "constant": false,
      "inputs": [
        {
          "name": "index",
          "type": "uint256"
        }
      ],
      "name": "finalizeRequest",
      "outputs": [],
      "payable": false,
      "stateMutability": "nonpayable",
      "type": "function"
    },
    {
      "constant": true,
      "inputs": [],
      "name": "getSummary",
      "outputs": [
        {
          "name": "",
          "type": "uint256"
        },
        {
          "name": "",
          "type": "uint256"
        },
        {
          "name": "",
          "type": "uint256"
        },
        {
          "name": "",
          "type": "uint256"
        },
        {
          "name": "",
          "type": "address"
        }
      ],
      "payable": false,
      "stateMutability": "view",
      "type": "function"
    },
    {
      "constant": true,
      "inputs": [
        {
          "name": "index",
          "type": "uint256"
        }
      ],
      "name": "getRequestDetails",
      "outputs": [
        {
          "name": "",
          "type": "string"
        },
        {
          "name": "",
          "type": "string"
        },
        {
          "name": "",
          "type": "string"
        },
        {
          "name": "",
          "type": "address"
        },
        {
          "name": "",
          "type": "uint256"
        },
        {
          "name": "",
          "type": "uint256"
        },
        {
          "name": "",
          "type": "uint256"
        },
        {
          "name": "",
          "type": "uint256"
        }
      ],
      "payable": false,
      "stateMutability": "view",
      "type": "function"
    },
    {
      "constant": true,
      "inputs": [],
      "name": "getRequestsCount",
      "outputs": [
        {
          "name": "",
          "type": "uint256"
        }
      ],
      "payable": false,
      "stateMutability": "view",
      "type": "function"
    },
    {
      "constant": true,
      "inputs": [],
      "name": "getContractBalance",
      "outputs": [
        {
          "name": "",
          "type": "uint256"
        }
      ],
      "payable": false,
      "stateMutability": "view",
      "type": "function"
    },
    {
      "constant": true,
      "inputs": [],
      "name": "getContributorList",
      "outputs": [
        {
          "name": "",
          "type": "address[]"
        }
      ],
      "payable": false,
      "stateMutability": "view",
      "type": "function"
    },
    {
      "constant": true,
      "inputs": [],
      "name": "getContributorCount",
      "outputs": [
        {
          "name": "",
          "type": "uint256"
        }
      ],
      "payable": false,
      "stateMutability": "view",
      "type": "function"
    },
    {
      "constant": true,
      "inputs": [],
      "name": "getTotalContribution",
      "outputs": [
        {
          "name": "",
          "type": "uint256"
        }
      ],
      "payable": false,
      "stateMutability": "view",
      "type": "function"
    }
  ],
  "bytecode": "0x60806040526000600355600060055534801561001a57600080fd5b50604051604080612036833981018060405281019080805190602001909291908051906020019092919050505080600160006101000a81548173ffffffffffffffffffffffffffffffffffffffff021916908373ffffffffffffffffffffffffffffffffffffffff160217905550816002819055505050611f96806100a06000396000f3006080604052600436106100d0576000357c0100000000000000000000000000000000000000000000000000000000900463ffffffff16806303441006146100d557806308caa910146101025780631f6d49421461012d578063253da8bd146101885780633410452a146101b35780634051ddac146101de5780634226e77514610251578063481c6a751461038e5780634955c83b146103e55780636f9fb98a14610451578063937e09b11461047c578063d7bb99ba146104a7578063d7d1bbdb146104b1578063f34d4c63146104de575b600080fd5b3480156100e157600080fd5b50610100600480360381019080803590602001909291905050506106ab565b005b34801561010e57600080fd5b50610117610a87565b6040518082815260200191505060405180910390f35b34801561013957600080fd5b5061016e600480360381019080803573ffffffffffffffffffffffffffffffffffffffff169060200190929190505050610bd0565b604051808215151515815260200191505060405180910390f35b34801561019457600080fd5b5061019d610bf0565b6040518082815260200191505060405180910390f35b3480156101bf57600080fd5b506101c8610d39565b6040518082815260200191505060405180910390f35b3480156101ea57600080fd5b506101f3610e85565b604051808681526020018581526020018481526020018381526020018273ffffffffffffffffffffffffffffffffffffffff1673ffffffffffffffffffffffffffffffffffffffff1681526020019550505050505060405180910390f35b34801561025d57600080fd5b5061038c600480360381019080803590602001908201803590602001908080601f0160208091040260200160405190810160405280939291908181526020018383808284378201915050505050509192919290803590602001908201803590602001908080601f0160208091040260200160405190810160405280939291908181526020018383808284378201915050505050509192919290803590602001908201803590602001908080601f016020809104026020016040519081016040528093929190818152602001838380828437820191505050505050919291929080359060200190929190803590602001909291908035906020019092919080359060200190929190803573ffffffffffffffffffffffffffffffffffffffff169060200190929190505050611024565b005b34801561039a57600080fd5b506103a361130c565b604051808273ffffffffffffffffffffffffffffffffffffffff1673ffffffffffffffffffffffffffffffffffffffff16815260200191505060405180910390f35b3480156103f157600080fd5b506103fa611332565b6040518080602001828103825283818151815260200191508051906020019060200280838360005b8381101561043d578082015181840152602081019050610422565b505050509050019250505060405180910390f35b34801561045d57600080fd5b506104666114ff565b6040518082815260200191505060405180910390f35b34801561048857600080fd5b5061049161165d565b6040518082815260200191505060405180910390f35b6104af611663565b005b3480156104bd57600080fd5b506104dc600480360381019080803590602001909291905050506117f9565b005b3480156104ea57600080fd5b5061050960048036038101908080359060200190929190505050611a69565b604051808060200180602001806020018973ffffffffffffffffffffffffffffffffffffffff1673ffffffffffffffffffffffffffffffffffffffff16815260200188815260200187815260200186815260200185815260200184810384528c818151815260200191508051906020019080838360005b8381101561059b578082015181840152602081019050610580565b50505050905090810190601f1680156105c85780820380516001836020036101000a031916815260200191505b5084810383528b818151815260200191508051906020019080838360005b838110156106015780820151818401526020810190506105e6565b50505050905090810190601f16801561062e5780820380516001836020036101000a031916815260200191505b5084810382528a818151815260200191508051906020019080838360005b8381101561066757808201518184015260208101905061064c565b50505050905090810190601f1680156106945780820380516001836020036101000a031916815260200191505b509b50505050505050505050505060405180910390f35b6000600160009054906101000a900473ffffffffffffffffffffffffffffffffffffffff1673ffffffffffffffffffffffffffffffffffffffff163373ffffffffffffffffffffffffffffffffffffffff16141515610798576040517f08c379a000000000000000000000000000000000000000000000000000000000815260040180806020018281038252602c8152602001807f4f6e6c7920636f6e74726163742063726561746f722063616e2063616c6c207481526020017f6869732066756e6374696f6e000000000000000000000000000000000000000081525060400191505060405180910390fd5b6000828154811015156107a757fe5b90600052602060002090600b020190506107cd6002600554611e0a90919063ffffffff16565b816009015411151561086d576040517f08c379a00000000000000000000000000000000000000000000000000000000081526004018080602001828103825260278152602001807f4d696e696d756d2035302520636f6e7472696275746f72732073686f756c642081526020017f617070726f76650000000000000000000000000000000000000000000000000081525060400191505060405180910390fd5b8060080160149054906101000a900460ff1615151561091a576040517f08c379a00000000000000000000000000000000000000000000000000000000081526004018080602001828103825260248152602001807f596f752063616e2066696e616c697a652072657175657374206f6e6c79206f6e81526020017f636521210000000000000000000000000000000000000000000000000000000081525060400191505060405180910390fd5b6109306005600354611e0a90919063ffffffff16565b8160070154111515156109f7576040517f08c379a000000000000000000000000000000000000000000000000000000000815260040180806020018281038252604d8152602001807f416e792066756e64696e6720726571756573742063616e6e6f7420657863656581526020017f64206d6f7265207468616e20323025206f6620746f74616c20636f6e7472696281526020017f7574696f6e20616d6f756e742e0000000000000000000000000000000000000081525060600191505060405180910390fd5b8060080160009054906101000a900473ffffffffffffffffffffffffffffffffffffffff1673ffffffffffffffffffffffffffffffffffffffff166108fc82600701549081150290604051600060405180830381858888f19350505050158015610a65573d6000803e3d6000fd5b5060018160080160146101000a81548160ff0219169083151502179055505050565b6000600160009054906101000a900473ffffffffffffffffffffffffffffffffffffffff1673ffffffffffffffffffffffffffffffffffffffff163373ffffffffffffffffffffffffffffffffffffffff161480610b2e5750600460003373ffffffffffffffffffffffffffffffffffffffff1673ffffffffffffffffffffffffffffffffffffffff16815260200190815260200160002060009054906101000a900460ff165b1515610bc8576040517f08c379a00000000000000000000000000000000000000000000000000000000081526004018080602001828103825260338152602001807f4f6e6c7920636f6e7472696275746f7273206f72206d616e616765722063616e81526020017f2063616c6c20746869732066756e6374696f6e0000000000000000000000000081525060400191505060405180910390fd5b600354905090565b60046020528060005260406000206000915054906101000a900460ff1681565b6000600160009054906101000a900473ffffffffffffffffffffffffffffffffffffffff1673ffffffffffffffffffffffffffffffffffffffff163373ffffffffffffffffffffffffffffffffffffffff161480610c975750600460003373ffffffffffffffffffffffffffffffffffffffff1673ffffffffffffffffffffffffffffffffffffffff16815260200190815260200160002060009054906101000a900460ff165b1515610d31576040517f08c379a00000000000000000000000000000000000000000000000000000000081526004018080602001828103825260338152602001807f4f6e6c7920636f6e7472696275746f7273206f72206d616e616765722063616e81526020017f2063616c6c20746869732066756e6374696f6e0000000000000000000000000081525060400191505060405180910390fd5b600554905090565b6000600160009054906101000a900473ffffffffffffffffffffffffffffffffffffffff1673ffffffffffffffffffffffffffffffffffffffff163373ffffffffffffffffffffffffffffffffffffffff161480610de05750600460003373ffffffffffffffffffffffffffffffffffffffff1673ffffffffffffffffffffffffffffffffffffffff16815260200190815260200160002060009054906101000a900460ff165b1515610e7a576040517f08c379a00000000000000000000000000000000000000000000000000000000081526004018080602001828103825260338152602001807f4f6e6c7920636f6e7472696275746f7273206f72206d616e616765722063616e81526020017f2063616c6c20746869732066756e6374696f6e0000000000000000000000000081525060400191505060405180910390fd5b600080549050905090565b6000806000806000600160009054906101000a900473ffffffffffffffffffffffffffffffffffffffff1673ffffffffffffffffffffffffffffffffffffffff163373ffffffffffffffffffffffffffffffffffffffff161480610f325750600460003373ffffffffffffffffffffffffffffffffffffffff1673ffffffffffffffffffffffffffffffffffffffff16815260200190815260200160002060009054906101000a900460ff165b1515610fcc576040517f08c379a00000000000000000000000000000000000000000000000000000000081526004018080602001828103825260338152602001807f4f6e6c7920636f6e7472696275746f7273206f72206d616e616765722063616e81526020017f2063616c6c20746869732066756e6374696f6e0000000000000000000000000081525060400191505060405180910390fd5b6002543073ffffffffffffffffffffffffffffffffffffffff1631600080549050600554600160009054906101000a900473ffffffffffffffffffffffffffffffffffffffff16945094509450945094509091929394565b61102c611e3c565b600160009054906101000a900473ffffffffffffffffffffffffffffffffffffffff1673ffffffffffffffffffffffffffffffffffffffff163373ffffffffffffffffffffffffffffffffffffffff16141515611117576040517f08c379a000000000000000000000000000000000000000000000000000000000815260040180806020018281038252602c8152602001807f4f6e6c7920636f6e74726163742063726561746f722063616e2063616c6c207481526020017f6869732066756e6374696f6e000000000000000000000000000000000000000081525060400191505060405180910390fd5b610160604051908101604052808a81526020018981526020018881526020013373ffffffffffffffffffffffffffffffffffffffff1681526020018781526020018681526020018581526020018481526020018373ffffffffffffffffffffffffffffffffffffffff168152602001600015158152602001600081525090506000819080600181540180825580915050906001820390600052602060002090600b02016000909192909190915060008201518160000190805190602001906111e0929190611ec5565b5060208201518160010190805190602001906111fd929190611ec5565b50604082015181600201908051906020019061121a929190611ec5565b5060608201518160030160006101000a81548173ffffffffffffffffffffffffffffffffffffffff021916908373ffffffffffffffffffffffffffffffffffffffff1602179055506080820151816004015560a0820151816005015560c0820151816006015560e082015181600701556101008201518160080160006101000a81548173ffffffffffffffffffffffffffffffffffffffff021916908373ffffffffffffffffffffffffffffffffffffffff1602179055506101208201518160080160146101000a81548160ff0219169083151502179055506101408201518160090155505050505050505050505050565b600160009054906101000a900473ffffffffffffffffffffffffffffffffffffffff1681565b6060600160009054906101000a900473ffffffffffffffffffffffffffffffffffffffff1673ffffffffffffffffffffffffffffffffffffffff163373ffffffffffffffffffffffffffffffffffffffff1614806113d95750600460003373ffffffffffffffffffffffffffffffffffffffff1673ffffffffffffffffffffffffffffffffffffffff16815260200190815260200160002060009054906101000a900460ff165b1515611473576040517f08c379a00000000000000000000000000000000000000000000000000000000081526004018080602001828103825260338152602001807f4f6e6c7920636f6e7472696275746f7273206f72206d616e616765722063616e81526020017f2063616c6c20746869732066756e6374696f6e0000000000000000000000000081525060400191505060405180910390fd5b60068054806020026020016040519081016040528092919081815260200182805480156114f557602002820191906000526020600020905b8160009054906101000a900473ffffffffffffffffffffffffffffffffffffffff1673ffffffffffffffffffffffffffffffffffffffff16815260200190600101908083116114ab575b5050505050905090565b6000600160009054906101000a900473ffffffffffffffffffffffffffffffffffffffff1673ffffffffffffffffffffffffffffffffffffffff163373ffffffffffffffffffffffffffffffffffffffff1614806115a65750600460003373ffffffffffffffffffffffffffffffffffffffff1673ffffffffffffffffffffffffffffffffffffffff16815260200190815260200160002060009054906101000a900460ff165b1515611640576040517f08c379a00000000000000000000000000000000000000000000000000000000081526004018080602001828103825260338152602001807f4f6e6c7920636f6e7472696275746f7273206f72206d616e616765722063616e81526020017f2063616c6c20746869732066756e6374696f6e0000000000000000000000000081525060400191505060405180910390fd5b3073ffffffffffffffffffffffffffffffffffffffff1631905090565b60025481565b60025434111515611702576040517f08c379a00000000000000000000000000000000000000000000000000000000081526004018080602001828103825260288152602001807f436f6e747269627574696f6e2073686f756c64206265206d6f7265207468616e81526020017f203130302077656900000000000000000000000000000000000000000000000081525060400191505060405180910390fd5b6001600460003373ffffffffffffffffffffffffffffffffffffffff1673ffffffffffffffffffffffffffffffffffffffff16815260200190815260200160002060006101000a81548160ff0219169083151502179055506117706001600554611e2090919063ffffffff16565b60058190555060063390806001815401808255809150509060018203906000526020600020016000909192909190916101000a81548173ffffffffffffffffffffffffffffffffffffffff021916908373ffffffffffffffffffffffffffffffffffffffff160217905550506117f134600354611e2090919063ffffffff16565b600381905550565b6000600460003373ffffffffffffffffffffffffffffffffffffffff1673ffffffffffffffffffffffffffffffffffffffff16815260200190815260200160002060009054906101000a900460ff1615156118e2576040517f08c379a00000000000000000000000000000000000000000000000000000000081526004018080602001828103825260288152602001807f4f6e6c7920636f6e7472696275746f72732063616e2063616c6c20746869732081526020017f66756e6374696f6e00000000000000000000000000000000000000000000000081525060400191505060405180910390fd5b6000828154811015156118f157fe5b90600052602060002090600b0201905080600a0160003373ffffffffffffffffffffffffffffffffffffffff1673ffffffffffffffffffffffffffffffffffffffff16815260200190815260200160002060009054906101000a900460ff161515156119eb576040517f08c379a00000000000000000000000000000000000000000000000000000000081526004018080602001828103825260248152602001807f596f752063616e20617070726f76652072657175657374206f6e6c79206f6e6381526020017f652121210000000000000000000000000000000000000000000000000000000081525060400191505060405180910390fd5b600181600a0160003373ffffffffffffffffffffffffffffffffffffffff1673ffffffffffffffffffffffffffffffffffffffff16815260200190815260200160002060006101000a81548160ff021916908315150217905550611a5d60018260090154611e2090919063ffffffff16565b81600901819055505050565b6060806060600080600080600080600160009054906101000a900473ffffffffffffffffffffffffffffffffffffffff1673ffffffffffffffffffffffffffffffffffffffff163373ffffffffffffffffffffffffffffffffffffffff161480611b1c5750600460003373ffffffffffffffffffffffffffffffffffffffff1673ffffffffffffffffffffffffffffffffffffffff16815260200190815260200160002060009054906101000a900460ff165b1515611bb6576040517f08c379a00000000000000000000000000000000000000000000000000000000081526004018080602001828103825260338152602001807f4f6e6c7920636f6e7472696275746f7273206f72206d616e616765722063616e81526020017f2063616c6c20746869732066756e6374696f6e0000000000000000000000000081525060400191505060405180910390fd5b60008a815481101515611bc557fe5b90600052602060002090600b020190508060000181600101826002018360030160009054906101000a900473ffffffffffffffffffffffffffffffffffffffff168460040154856005015486600601548760090154878054600181600116156101000203166002900480601f016020809104026020016040519081016040528092919081815260200182805460018160011615610100020316600290048015611caf5780601f10611c8457610100808354040283529160200191611caf565b820191906000526020600020905b815481529060010190602001808311611c9257829003601f168201915b50505050509750868054600181600116156101000203166002900480601f016020809104026020016040519081016040528092919081815260200182805460018160011615610100020316600290048015611d4b5780601f10611d2057610100808354040283529160200191611d4b565b820191906000526020600020905b815481529060010190602001808311611d2e57829003601f168201915b50505050509650858054600181600116156101000203166002900480601f016020809104026020016040519081016040528092919081815260200182805460018160011615610100020316600290048015611de75780601f10611dbc57610100808354040283529160200191611de7565b820191906000526020600020905b815481529060010190602001808311611dca57829003601f168201915b505050505095509850985098509850985098509850985050919395975091939597565b60008183811515611e1757fe5b04905092915050565b60008183019050828110151515611e3357fe5b80905092915050565b61016060405190810160405280606081526020016060815260200160608152602001600073ffffffffffffffffffffffffffffffffffffffff16815260200160008152602001600081526020016000815260200160008152602001600073ffffffffffffffffffffffffffffffffffffffff168152602001600015158152602001600081525090565b828054600181600116156101000203166002900490600052602060002090601f016020900481019282601f10611f0657805160ff1916838001178555611f34565b82800160010185558215611f34579182015b82811115611f33578251825591602001919060010190611f18565b5b509050611f419190611f45565b5090565b611f6791905b80821115611f63576000816000905550600101611f4b565b5090565b905600a165627a7a72305820da6f322232eb47e1eb1cc2e02334958dfa8f8ed1776c65ce052f5ab1594278ae0029",
  "source": "/* Sample Crowdfunding Smart contract\n\nSteps for executing this contract\n1. Deploy CampaignFactory\n2. Click createCampaign with minimumContribution.\n3. getDeployedCampaigns.\n4. Use the contract address to load Campaign contract.\n5. Select accounts one by one, provide Value more than minimumContribution and click contribute.\n6. Manager(contract creator) creates spending request using createProjectRequest with required parameters.\n7. All accounts to approve the request using approveRequest and index as parameter.\n8. Contract creator to finalizeRequest so that money can be dispensed.\n\nUse getSummary and getProjectDetails to get details.\n\n*/\n\n/*\nIn real code use it like this\nnpm install -E zeppelin-solidity\nimport 'zeppelin-solidity/contracts/math/SafeMath.sol';\n*/\n//import \"github.com/OpenZeppelin/zeppelin-solidity/contracts/math/SafeMath.sol\";\n\nlibrary SafeMath {\n\n  /**\n  * @dev Multiplies two numbers, throws on overflow.\n  */\n  function mul(uint256 a, uint256 b) internal pure returns (uint256 c) {\n    // Gas optimization: this is cheaper than asserting 'a' not being zero, but the\n    // benefit is lost if 'b' is also tested.\n    // See: https://github.com/OpenZeppelin/openzeppelin-solidity/pull/522\n    if (a == 0) {\n      return 0;\n    }\n\n    c = a * b;\n    assert(c / a == b);\n    return c;\n  }\n\n  /**\n  * @dev Integer division of two numbers, truncating the quotient.\n  */\n  function div(uint256 a, uint256 b) internal pure returns (uint256) {\n    // assert(b > 0); // Solidity automatically throws when dividing by 0\n    // uint256 c = a / b;\n    // assert(a == b * c + a % b); // There is no case in which this doesn't hold\n    return a / b;\n  }\n\n  /**\n  * @dev Subtracts two numbers, throws on overflow (i.e. if subtrahend is greater than minuend).\n  */\n  function sub(uint256 a, uint256 b) internal pure returns (uint256) {\n    assert(b <= a);\n    return a - b;\n  }\n\n  /**\n  * @dev Adds two numbers, throws on overflow.\n  */\n  function add(uint256 a, uint256 b) internal pure returns (uint256 c) {\n    c = a + b;\n    assert(c >= a);\n    return c;\n  }\n}\n\npragma solidity ^0.4.17;\n\ncontract CampaignFactory {\n    address[] public deployedCampaigns;\n\n    function createCampaign(uint minimum) public {\n        address newCampaign = new Campaign(minimum, msg.sender);\n        deployedCampaigns.push(newCampaign);\n    }\n\n    function getDeployedCampaigns() public view returns (address[]) {\n        return deployedCampaigns;\n    }\n}\n\ncontract Campaign {\n\n    using SafeMath for uint256;\n\n    struct ProjectRequest {\n        string projectCategory; /* short film, documentary, music video, song */\n        string projectDescription;\n        string projectTitle;\n        address user;\n        uint fundingGoal;\n        uint dateOfPosting;\n        uint dateOfClosing;\n        uint value;\n        address recipient;\n\t      bool complete;\n        uint approvalCount;\n        mapping(address => bool) approvals;\n    }\n\n    ProjectRequest[] private requests;\n    address public manager;\n    uint public minimumContribution;\n    uint private totalContribution = 0;\n    mapping(address => bool) public contributors;\n    uint private contributorsCount = 0;\n\t  address[] private contributorList; // idea is to get list of contributors for any project\n\t//event GetSummary(string str);\n\n    modifier isManager() {\n        require(msg.sender == manager,\"Only contract creator can call this function\");\n        _;\n    }\n\n    modifier isContributor() {\n        require(contributors[msg.sender],\"Only contributors can call this function\");\n        _;\n    }\n\n    modifier isContributorOrManager() {\n        require(msg.sender == manager || contributors[msg.sender],\"Only contributors or manager can call this function\");\n        _;\n    }\n\n    constructor(uint minimum, address creator) public {\n        manager = creator;\n        minimumContribution = minimum;\n    }\n\n    function contribute() public payable {\n        require(msg.value > minimumContribution,\"Contribution should be more than 100 wei\");\n\n        contributors[msg.sender] = true;\n        contributorsCount = contributorsCount.add(1);\n        \n        contributorList.push(msg.sender);\n        totalContribution = totalContribution.add(msg.value);\n    }\n\n\n/*\n\"short film\", \" short film about animals\",  \"animal life\",  1000,  222, 2222, 2,0xdd870fa1b7c4700f2bd7f44238821c26f7392148\n*/\n    function createProjectRequest(\n      string _projectCategory,\n      string _projectDescription,\n      string _projectTitle,\n      uint _fundingGoal,\n      uint _dateOfPosting,\n      uint _dateOfClosing,\n      uint _value,\n      address _recipient\n    ) public isManager {\n        ProjectRequest memory newProjectRequest = ProjectRequest({\n           projectCategory: _projectCategory,\n           projectDescription: _projectDescription,\n           projectTitle: _projectTitle,\n           user: msg.sender,\n           fundingGoal: _fundingGoal,\n           dateOfPosting: _dateOfPosting,\n           dateOfClosing: _dateOfClosing,\n           value: _value,\n           recipient: _recipient,\n\t\t   complete: false,\n           approvalCount: 0\n        });\n\n        requests.push(newProjectRequest);\n    }\n\n    function approveRequest(uint index) public isContributor {\n        ProjectRequest storage request = requests[index];\n\n        //require(contributors[msg.sender],\"You need to be a contributor to approve a request\");\n        require(!request.approvals[msg.sender],\"You can approve request only once!!!\");\n\n        request.approvals[msg.sender] = true;\n        request.approvalCount = request.approvalCount.add(1);\n    }\n\n/* 50% (half) majority required for finalizing spending request */\n\n    function finalizeRequest(uint index) public isManager {\n        ProjectRequest storage request = requests[index];\n\n        require(request.approvalCount > (contributorsCount.div(2)),\"Minimum 50% contributors should approve\");\n        require(!request.complete,\"You can finalize request only once!!\");\n        require(request.value <= totalContribution.div(5),\n                \"Any funding request cannot exceed more than 20% of total contribution amount.\");\n\n        request.recipient.transfer(request.value);\n        request.complete = true;\n    }\n\n    function getSummary() public isContributorOrManager view returns (uint, uint, uint, uint, address) {\n        //emit GetSummary(\"summary created\");\n        return (minimumContribution,address(this).balance,requests.length,contributorsCount,manager);\n\n    }\n\n\tfunction getRequestDetails(uint index) public isContributorOrManager view returns\n\t(string, string, string, address, uint, uint, uint,uint) {\n\t\tProjectRequest storage request = requests[index];\n\t\treturn (\n\t\t    request.projectCategory,\n\t\t    request.projectDescription,\n\t\t    request.projectTitle,\n\t\t    request.user,\n\t\t    request.fundingGoal,\n\t\t    request.dateOfPosting,\n\t\t    request.dateOfClosing,\n\t\t    request.approvalCount\n\t\t    );\n\t}\n\n    function getRequestsCount() public isContributorOrManager view returns (uint) {\n        return requests.length;\n    }\n\n    function getContractBalance() public isContributorOrManager view returns (uint) {\n        return address(this).balance;\n    }\n\n    function getContributorList() public isContributorOrManager view returns (address[]) {\n        return contributorList;\n    }\n\n    function getContributorCount() public isContributorOrManager view returns(uint) {\n        return contributorsCount;\n    }\n\n    function getTotalContribution() public isContributorOrManager view returns(uint) {\n        return totalContribution;\n    }\n\n}\n",
  "sourcePath": "/media/anurag/FOR_UBUNTU/ConsenSys_Surya/example_contracts/truffle/contracts/campaign.sol",
  "compiler": {
    "name": "solc",
    "version": "0.4.24+commit.e67f0147.Emscripten.clang"
  },
  "schemaVersion": "2.0.0",
  "updatedAt": "2018-08-26T07:23:10.421Z"
}